:100000000C942F010C94F10B0C94C60B0C949B0BCD
:100010000C94700B0C94450B0C941A0B0C94EF0A77
:100020000C94C40A0C9459010C94E70D0C945901DA
:100030000C9459010C9459010C9459010C945901D8
:100040000C947A0A0C9459010C9459010C9459019E
:100050000C9459010C9459010C9459010C945901B8
:100060000C9459010C9459010C9459010C945901A8
:100070000C9459010C944C0D0C9459010C94590199
:100080000C9459010C941C0C0C945901440300006D
:10009000000000120D0000000000000101C08000FF
:1000A000000000000000000000060000000000004A
:1000B0000000000000000000000000000000000040
:1000C0000000000000003F000000000000000000F1
:1000D0000000000000000000000000000000000020
:1000E0000000000000000000000000000000000010
:1000F00000000000000000000000000002001C00E2
:1001000003001C0004001C0005001C0006001C006D
:1001100007001C0008001C0009001C000A001C004D
:100120000B001C000C001C000D001C000E001C002D
:100130000F0010001000100011001000120010003D
:10014000130010001400100015001000160010001D
:1001500017001000180010001900100001001C000A
:1001600001001C0001001C0001001C0001001C001B
:1001700000801F0000811F00FF000000FF00000042
:10018000FF000000FF000000FF000000FF00000073
:10019000FF000000FF000000FF00000000003A0028
:1001A00037003400310022006100640000003B0091
:1001B00038003500320023006200650005050505A2
:1001C00005050505020202020202020207070404F5
:1001D00004040404040407070303030303030303E1
:1001E00007010101010101010106060606060606D6
:1001F000060102040810204080010204081020407B
:10020000800810010204081020408001020102044D
:1002100008102040800480402010080402010102E0
:100220000408102040800000000A0B0C00000000B1
:1002300000000104050600000000000000000000AE
:1002400000000000000000000000000000000000AE
:10025000000000000000000000000000340E112427
:100260001FBECFEFD0E1DEBFCDBF11E0A0E0B1E017
:10027000E6E5F1E200E00BBF02C007900D92A63A5E
:10028000B107D9F722E0A6EAB1E001C01D92A03B78
:10029000B207E1F711E0CFE2D1E004C02197FE01FF
:1002A0000E94580FCE32D107C9F70E94450E0C9418
:1002B000A9100C94000090919F0281E0913208F007
:1002C00043C080917B028111FCCF80919E0222E08D
:1002D00020937B0221E020937A022FEF2093790272
:1002E0002EE732E030937802209377021092760264
:1002F000909375021092740290917402880F892B6A
:100300008093740280917302813029F510927302F8
:1003100080917402809373008091740083FDF8CF04
:1003200085EC8093740080917B028230E1F38091B0
:1003300079028F3F91F080917902803281F0809133
:100340007902803371F084E010927D0210929F0256
:1003500010927C02089585EEE4CF80E0F5CF82E034
:10036000F3CF83E0F1CF90E0FC01EA5DFD4F2491F3
:10037000FC01EF50FE4F349184549E4FFC01849158
:10038000882341F12223C1F021502C30A8F4E22F20
:10039000F0E0E353FE4F0C94580F03020302DC011C
:1003A000D901EB01EE01F101DC01DC01F501FB01FA
:1003B000FF019FB59F779FBDE82FF0E0EE0FFF1F75
:1003C000E455FE4FA591B4918FB7F894EC913E2B74
:1003D0003C938FBF08959FB59F7DEDCF9FB5977FCD
:1003E000EACF95B59F7D95BDE7CF90918B009F7724
:1003F00090938B00E1CF90918B009F7DF9CF9091EE
:100400008B00977FF5CF93B79F7D93BFD5CFE82F14
:10041000F0E0E75AFD4F8085861739F06087618BE1
:1004200080915B02836080935B020895262F30E009
:1004300090915F029078691729F090915B029C601F
:1004400090935B023695322F222737952795822B82
:1004500080935F02809360020895E0913702F091EB
:100460003802309729F010927D0210929F02099471
:100470000895CF93DF93AC01E0913502F0913602FD
:100480003097F1F090913402809133029817C0F0C8
:1004900090E0292F30E02617370754F4D901A055F2
:1004A000BE4F240F351FE90128812C939F5FF1CFA8
:1004B0001092340260933302CB01DF91CF91099403
:1004C000DF91CF9108950895809133029091340285
:1004D000891B990B089585ED8093740080917400B9
:1004E00084FDFCCF10927B0208952091F001260F2D
:1004F0003327331F21323105ECF420917B02FC01BC
:1005000090E080E0243069F082E00895A091F0014D
:100510002191AC0140535E4FA40FB52FB11D2C9318
:100520000196861798F38091F001680F6093F001AF
:1005300080E0089581E008950895E091340280916B
:100540003302E81730F4F0E0E055FE4F808190E090
:1005500008958FEF9FEF08959091340280913302B8
:100560002FEF3FEF981748F4E92FF0E0E055FE4FEA
:10057000208130E09F5F90933402C9010895CF92AB
:10058000DF92EF92FF920F931F93CF93DF937C0143
:10059000CB018A0120917C02222389F0EB016B01BF
:1005A000C40ED51ECC15DD0569F06991D701ED911A
:1005B000FC910190F081E02DC7010995F3CF642FE4
:1005C0000E947502C801DF91CF911F910F91FF909A
:1005D000EF90DF90CF900895CF93DF931F92CDB728
:1005E000DEB7698320917C022223F9F020919F02DB
:1005F000203258F021E030E0FC013383228390E088
:1006000080E00F90DF91CF91089580917D02E82FD7
:10061000F0E0E258FD4F998190838F5F80937D02D7
:1006200080939F0281E090E0ECCF61E0CE010196E3
:100630000E947502F7CF1F93CF93DF93C7E2D2E0FA
:100640001881698180EA92E00E94EC02612F80EAC1
:1006500092E00E94EC026A8180EA92E0DF91CF9101
:100660001F910C94EC0290E080E0089580E090E00F
:10067000892B29F08091580283FD0C940000089585
:10068000009731F160915C0270915D0286179707C7
:1006900009F06DC041504A30D8F4E42FF0E0ED5A33
:1006A000FC4F0C94580F5D036903740384038B03A0
:1006B00092039903A003A703AF0380916102281757
:1006C00039F02093610280915B02816080935B022C
:1006D00008959091620280EF820F292B28239217B0
:1006E000B9F320936202EFCF3091620240E1249F80
:1006F000C0011124832B2295207F215F822338178C
:1007000039F380936202DFCF80916302281701F3EF
:1007100020936302D8CF809164022817C9F22093F6
:100720006402D1CF80916502281791F2209365026F
:10073000CACF80916602281759F220936602C3CF70
:1007400080916702281721F220936702BCCF809125
:100750006802281709F4BCCF20936802B4CF8091B7
:100760006902281709F4B4CF20936902ACCF309105
:100770005E023F773817190609F0AACF4230A1F080
:1007800018F4413031F008954330D1F0443049F14C
:10079000089580916A02281709F49ACF20936A027B
:1007A00080915B02826092CF90916B0280EF820F0A
:1007B000292B2823921709F48BCF20936B02F0CFBB
:1007C00030916B0240E1249FC0011124832B2295BC
:1007D000207F215F8223381709F47ACF80936B0240
:1007E000DFCF80916C02281709F472CF20936C023E
:1007F000D7CF0F93009721F160915C0270915D0259
:100800008617970729F5822F90E030915F023078A4
:10081000231729F020915B02246020935B020D31A5
:1008200089F00F3779F00F3081F49C013695322F23
:1008300022273795279580915F02822B80935F0254
:100840000F91089540935F02F0CF10925F02EDCFB9
:1008500030915E023F773817190691F7822F90E0AA
:10086000309160023078231729F020915B022860D4
:1008700020935B029695982F882797958795482B0C
:1008800040936002DDCF81508F3108F07CC0E82FAB
:10089000F0E0E35BFB4F0C94580F6C046E047004A3
:1008A00072047404760478047A047C047E0484045C
:1008B00088048A048C04920496049A049E04A0047A
:1008C000A404A804AA04AC04AE04B004B404B8049C
:1008D000BA04BC04BE04C204C5980895C49808951F
:1008E000C3980895C2980895C09808951F980895D0
:1008F0009798089596980895959808958091650021
:100900008F7E80936500089580916500877FF9CF81
:10091000C6980895C798089580916200877F809354
:1009200062000895809162008B7FF9CF8091620010
:100930008D7FF5CF809162008E7FF1CFDE98089594
:10094000809165008D7FDDCF809165008E7FD9CF4E
:10095000A9980895AA980895AB980895AC98089519
:10096000809162008F7DDBCF809162008F7BD7CF3B
:10097000DF980895AF980895AE9808958091620029
:100980008F7ECDCFAD9808951F93CF93DF93EC0169
:100990008A819B8110E0892BE9F48D819E8110E092
:1009A000892B69F588818E7F8883DF91CF911F9194
:1009B0000895812F90E0880F991FEA81FB81E80F4D
:1009C000F91F0190F081E02D80818F7780830E9454
:1009D00043041F5F8981181760F3DFCF812F90E0F8
:1009E000880F991FED81FE81E80FF91F0190F081BA
:1009F000E02D80818F7780830E9443041F5F8C816C
:100A0000181760F3CFCFFC0190819570953019F4E1
:100A1000CF010C94C4040895FC01208120FF03C081
:100A200022FF0C94C404089581508F3108F07CC0DB
:100A3000E82FF0E0E25EFA4F0C94580F3D053F05B9
:100A4000410543054505470549054B054D054F053E
:100A5000550559055B055D05630567056B056F0564
:100A60007105750579057B057D057F058105850582
:100A700089058B058D058F059305C59A0895C49A40
:100A80000895C39A0895C29A0895C09A08951F9A26
:100A90000895979A0895969A0895959A0895809141
:100AA000650080618093650008958091650088608D
:100AB000F9CFC69A0895C79A089580916200886018
:100AC000809362000895809162008460F9CF8091E4
:100AD00062008260F5CF809162008160F1CFDE9A82
:100AE0000895809165008260DDCF8091650081600E
:100AF000D9CFA99A0895AA9A0895AB9A0895AC9A65
:100B00000895809162008062DBCF809162008064F2
:100B1000D7CFDF9A0895AF9A0895AE9A089580913D
:100B200062008061CDCFAD9A089590915B028823D9
:100B300061F0906190935B0281E00E9414058091C6
:100B40008A00887F80938A0008959F7E90935B023D
:100B500081E00E94430410928800109289008091E5
:100B60008A008460EFCFCF93C82F809141028C1709
:100B700019F08C2F0E949505C0934102CC23F9F007
:100B80002FB7F89480913B0290913C02A0913D02D6
:100B9000B0913E022FBF482F392F2A2F8B2F409321
:100BA0004202309343022093440280934502809195
:100BB00041028C1749F08C2FCF910C94950540E0A1
:100BC00030E020E080E0EBCFCF9108950F931F93AA
:100BD000CF938C01C0E0F8018181C81720F0CF913C
:100BE0001F910F9108958C2F90E0880F991FD801C5
:100BF0001296ED91FC91E80FF91F0190F081E02D24
:100C00008081982F906890838F770E941405CF5F22
:100C1000E2CF1F93CF93DF93EC012881322F357001
:100C200099F4322F3160388321FF09C02A813B813A
:100C3000232B51F0DF91CF911F910C94E6052D816C
:100C40003E8110E0232BB9F4DF91CF911F910895DD
:100C5000812F90E0880F991FED81FE81E80FF91F29
:100C60000190F081E02D8081982F906890838F779C
:100C70000E9414051F5F8C81181750F3E5CFCF93A6
:100C8000DF93EC018881982F9270691789F06623B1
:100C900069F082608883888180FF0AC0CE010E944B
:100CA0000C05CE01DF91CF910C9409068D7FF2CF18
:100CB000DF91CF9108951F93CF93DF93EC012881AB
:100CC00020FD15C022FF13C0322F3160388321FF71
:100CD00009C02A813B81232B51F0DF91CF911F91D5
:100CE0000C94E6052D813E8110E0232BB9F4DF91B1
:100CF000CF911F910895812F90E0880F991FED816A
:100D0000FE81E80FF91F0190F081E02D8081982F7E
:100D1000906890838F770E9414051F5F8C8118174D
:100D200050F3E5CFCF93DF93EC018881982F927039
:100D3000691789F0662369F082608883888180FF63
:100D40000AC0CE010E940305CE01DF91CF910C9421
:100D50005B068D7FF2CFDF91CF910895A89A8FE740
:100D60009EE30197F1F700C00000A89808950C9445
:100D7000AE061F93CF93DF93EC0180915B0284FF5B
:100D80000BC08FE090E00E943F0F182F80E190E0B1
:100D90000E943F0F181306C0CE01DF91CF911F9123
:100DA0000C943F0FFFCF0C94B906CF93DF932091A3
:100DB0005502309156022F3F320721F0C901DF91D1
:100DC000CF9108958091580287FF2BC086FF0FC0F6
:100DD00089E090E00E94D306C82F81E090E00E9455
:100DE000D3069C2F909356028093550215C089E03C
:100DF00090E00E94D306C82F81E090E00E94D306C5
:100E000090E4C99F90011124207C31708F73282BAE
:100E100030935602209355028091550290915602CC
:100E2000CECF85FF0CC081E190E00E94D306C82F91
:100E300082E190E00E94D306C05CDD0BD2CF81E05E
:100E400090E00E94D30690E0CDCFCF93863823E088
:100E5000920719F138F4813823E09207D9F0CF9145
:100E60000C943F0F873823E09207D1F0883823E0B5
:100E70009207A9F786E893E00E943F0FC82F87E802
:100E800093E00E943F0F90E02FEFC29F800D911DD5
:100E90001124E5CF81E893E0E2CF86E893E0DFCF4D
:100EA00087E893E0DCCF0F931F93CF93DF93EC01A0
:100EB000162FC63883E0D80781F150F4C13883E09B
:100EC000D807F9F0612FCE010E94470FCE011FC055
:100ED000C73883E0D80741F1C83883E0D80791F7D5
:100EE00086E893E00E943F0F082F87E893E00E9476
:100EF0003F0FC82FD0E08FEF089FC00DD11D1124E8
:100F0000E1CF81E893E00E94470F81E893E0DF9111
:100F1000CF911F910F910C943F0F86E893E00E94B0
:100F2000470F86E893E0F3CF87E893E00E94470FEE
:100F300087E893E0ECCFCF93DF93D0E0C0E0FE01F1
:100F4000E457FF4F6491CE010E94470F2196C031B4
:100F500081E0D807A1F761E081E893E00E94470FA4
:100F6000C0E0CF5F8C2F0E941405CF31D1F7DF9105
:100F7000CF9108950C949B071F93CF93DF932091FB
:100F80003E012223C1F02FEF3FEF30931602209352
:100F9000150230931A022093190230931E022093F7
:100FA0001D023093220220932102309326022093C7
:100FB000250210923E0182309105C9F083309105DF
:100FC00009F458C020E030E0232B11F00E9400000B
:100FD0008091330290913402891B990B18161906DF
:100FE0000CF044C080EA92E00E94AC02F1CFE3E151
:100FF000F2E0D0E0C0E0828193810196E9F4CC0F69
:10100000DD1FCC0FDD1FCD5EDD4F1B821A8280EA13
:1010100092E00E94AC02888380EA92E00E94AC02D7
:101020008983E0913902F0913A023097C9F4D09364
:101030003A02C09339021AC021963496C530D105C0
:10104000D1F68091330290913402891B990B1816C6
:10105000190664F480EA92E00E94AC02F2CFFC012F
:10106000828193810097D9F7D383C283DF91CF9197
:101070001F91089580EA92E00E94AC02182F80EA46
:1010800092E00E94AC02D12F90E0C92FC80FD11D71
:10109000D0932802C093270280EA92E00E94AC021B
:1010A000682F80932902CE01D7FF21C09F779093AC
:1010B0002802809327028830910561F0843823E06C
:1010C000920741F08C3A23E0920721F0843D23E01F
:1010D000920741F481E8683039F4DF91CF911F9194
:1010E0000C949B070E94530780932902BFCF0E9454
:1010F0002507FACF1F93CF93DF93EC01162F0897A4
:1011000079F4662319F10E949B0780E090E0892B17
:10111000B9F0612FCE01DF91CF911F910C940000A7
:1011200080E090E0892BA9F781E0C11590E1D90713
:1011300008F080E0111105C0DF91CF911F91089553
:1011400081E027972297C0F780E0F6CF80E090E01B
:10115000892BF9F681E0F0CF0F931F93CF93DF93A4
:10116000EC01162F80915B0284FF25C0CF30D105A2
:1011700061F48FE090E00E94470F8FE090E0DF91F4
:10118000CF911F910F910C943F0F8FE090E00E9440
:101190003F0F082F80E190E00E943F0F08130AC024
:1011A000C730D10531F0C830D10529F4183049F0E5
:1011B000FFCFFFCFFFCF612FCE010E94470FCE019F
:1011C000DECF0E949B0788E0DF91CF911F910F91A6
:1011D00008950E94B305EFE3F2E081E08783108673
:1011E000E8E4F2E088E0DF011D928A95E9F70895CE
:1011F0008331910588F48131910530F48130910576
:1012000019F08930910531F42FEF3FEF30935602FA
:10121000209355020C94AC088D319105D9F7677F66
:101220006093580220913F022F73362F307C232B7E
:1012300020933F02E9CFBF92CF92DF92EF92FF92CD
:101240000F931F93CF93DF938B01B42E690182FF1D
:1012500023C083FF17C061E0C8010E947A08882379
:10126000D9F16B2DC8010E94F8088B1135C0F60129
:10127000DF91CF911F910F91FF90EF90DF90CF9072
:10128000BF90099460E0C8010E947A08882321F188
:10129000C8010E94D306E9CF842F8770C1E0D0E057
:1012A0007E0101C0EE0C8A95EAF7D42FD870CB01ED
:1012B0000E94D306C82FB4FE1CC061E0C8010E9482
:1012C0007A08882349F0DD2389F0CE296C2FC801E4
:1012D0000E94F8088C1759F2DF91CF911F910F915E
:1012E000FF90EF90DF90CF90BF900895E094CE21D3
:1012F000EDCF60E0C8010E947A08882369F3CE210F
:10130000DD2319F0C111B3CFE7CFCC2309F4AFCF60
:10131000E3CFAF92BF92DF92EF92FF920F931F93B2
:10132000CF93DF937C01162FC42FD22ED42FD07EE3
:1013300080913F0287FF2CC0D03EC1F5A0904002B3
:10134000AA20A1F1B12CC5010E94D306D82FC50156
:1013500001960E94D306982F8D2FE816F90631F5D5
:101360006C2F70E0762F6627662773706D296F5F8C
:101370007F4F26E333E0402F8C2FDF91CF911F91D9
:101380000F91FF90EF90DF90BF90AF900C941B09EE
:1013900080FD33C0D03609F464C090F4D03209F433
:1013A00049C0D03409F45DC0DD2381F1DF91CF91D4
:1013B0001F910F91FF90EF90DF90BF90AF90089535
:1013C000D03A09F484C090F42C2F2F7141E0D0382A
:1013D00069F7612FC701DF91CF911F910F91FF90A6
:1013E000EF90DF90BF90AF900C944003D03C09F495
:1013F00075C0D03E09F4B4CFD9CF0E94D5068E1562
:101400009F0541F2E114F10429F2D0CF8C2F8E70A8
:1014100069F680E090E0892B49F28C2F8170DF9192
:10142000CF911F910F91FF90EF90DF90BF90AF9001
:101430000C940000CF71CF3109F0B8CF4D2D4F770C
:1014400061F0413061F02D2D221F2227221F0DE176
:10145000612FC7010E94F903A9CF41E0F4CF40E01A
:10146000F2CF2C2F30E08C2F8F71813029F030F0AB
:10147000803121F0813109F540E001C041E095E083
:10148000359527959A95E1F721700DE1612FC701F8
:101490000E94F90380E090E0892B09F487CF4C2F5C
:1014A000612FC701DF91CF911F910F91FF90EF90B6
:1014B000DF90BF90AF900C940000C901880F991F76
:1014C0008E71C4FB442740F9482B4250D8CF2C2FB3
:1014D0002F7043E0C4FF7DCF42E07BCFCF71CE3190
:1014E00031F0CF3109F062CF2D2D45E072CF2D2D97
:1014F00044E06FCF1F920F920FB60F9211242F93DB
:101500003F938F939F93AF93BF9380913B029091B2
:101510003C02A0913D02B0913E0230912E0223E0A8
:10152000230F2D3768F126E8230F0296A11DB11D68
:1015300020932E0280933B0290933C02A0933D02A5
:10154000B0933E0280912A0290912B02A0912C022E
:10155000B0912D020196A11DB11D80932A02909396
:101560002B02A0932C02B0932D02BF91AF919F91BB
:101570008F913F912F910F900FBE0F901F90189554
:101580000196A11DB11DD4CF1F920F920FB60F92DD
:1015900011240BB60F922F933F934F935F936F934A
:1015A0007F938F939F93AF93BF93EF93FF93E091BC
:1015B0004D01F0914E010995FF91EF91BF91AF91CF
:1015C0009F918F917F916F915F914F913F912F915B
:1015D0000F900BBE0F900FBE0F901F9018951F928B
:1015E0000F920FB60F9211240BB60F922F933F93C9
:1015F0004F935F936F937F938F939F93AF93BF931B
:10160000EF93FF93E0914B01F0914C010995FF910D
:10161000EF91BF91AF919F918F917F916F915F916A
:101620004F913F912F910F900BBE0F900FBE0F90D7
:101630001F9018951F920F920FB60F9211240BB6A0
:101640000F922F933F934F935F936F937F938F935B
:101650009F93AF93BF93EF93FF93E0914901F09174
:101660004A010995FF91EF91BF91AF919F918F91A1
:101670007F916F915F914F913F912F910F900BBE92
:101680000F900FBE0F901F9018951F920F920FB6DC
:101690000F9211240BB60F922F933F934F935F93AA
:1016A0006F937F938F939F93AF93BF93EF93FF932A
:1016B000E0914701F09148010995FF91EF91BF91A9
:1016C000AF919F918F917F916F915F914F913F91DA
:1016D0002F910F900BBE0F900FBE0F901F9018957B
:1016E0001F920F920FB60F9211240BB60F922F93E9
:1016F0003F934F935F936F937F938F939F93AF939A
:10170000BF93EF93FF93E0914501F0914601099556
:10171000FF91EF91BF91AF919F918F917F916F91C9
:101720005F914F913F912F910F900BBE0F900FBE85
:101730000F901F9018951F920F920FB60F921124C1
:101740000BB60F922F933F934F935F936F937F93BB
:101750008F939F93AF93BF93EF93FF93E0914301D8
:10176000F09144010995FF91EF91BF91AF919F9145
:101770008F917F916F915F914F913F912F910F903A
:101780000BBE0F900FBE0F901F9018951F920F92D7
:101790000FB60F9211240BB60F922F933F934F93D6
:1017A0005F936F937F938F939F93AF93BF93EF93C9
:1017B000FF93E0914101F09142010995FF91EF9172
:1017C000BF91AF919F918F917F916F915F914F9159
:1017D0003F912F910F900BBE0F900FBE0F901F9057
:1017E00018951F920F920FB60F9211240BB60F92FD
:1017F0002F933F934F935F936F937F938F939F9319
:10180000AF93BF93EF93FF93E0913F01F0914001BD
:101810000995FF91EF91BF91AF919F918F917F912A
:101820006F915F914F913F912F910F900BBE0F9051
:101830000FBE0F901F9018951F920F920FB60F9228
:1018400011240BB60F922F933F934F935F936F9397
:101850007F938F939F93AF93BF93EF93FF93809169
:101860007100887F803609F44DC008F040C088328E
:1018700009F4A9C028F5803109F49DC0C8F4882373
:1018800009F407C1883009F496C0FF91EF91BF9128
:10189000AF919F918F917F916F915F914F913F9108
:1018A0002F910F900BBE0F900FBE0F901F901895A9
:1018B000883109F488C0803241F78093790214C0DE
:1018C000803409F4A5C040F48033B9F38833E9F6D5
:1018D0008093790285ECBCC0803509F489C08835D5
:1018E00009F49EC0883489F60E946B02CECF8839F5
:1018F00009F494C038F5883729F050F4883611F08F
:10190000803719F683E080937B021092120257C051
:10191000883809F483C0803919F0803809F0B5CFD0
:1019200080911202803208F079C0E091120281E0C9
:101930008E0F8093120280917300F0E0EE50FE4F04
:1019400080833DC0803B39F0E0F4803A09F485C0E3
:10195000883A09F09ACF84E080937B021092F101DB
:101960001092F001E0913102F091320209958091DC
:10197000F00181110FC081E08093F0011092D0013D
:1019800009C0803C09F4A6CF883C09F4A3CF883B6A
:1019900009F07BCFE091F10181E08E0F8093F1019E
:1019A000F0E0E053FE4F8081809373009091F1014D
:1019B0008091F00131C0809174028093730085ECB6
:1019C0008093740062CF909176028091750298178F
:1019D000B8F58091770290917802E091760221E04B
:1019E0002E0F20937602E80FF92FF11D8081E5CFAD
:1019F0002091770230917802E091760281E08E0F9B
:101A00008093760280917300E20FF32FF11D8083A3
:101A10009091760280917502981788F285E8D0CF70
:101A20002091770230917802E091760281E08E0F6A
:101A30008093760280917300E20FF32FF11D808373
:101A400080917A02811150CF81E08093730284EA01
:101A50008093740010927B0218CF85EC8093740001
:101A600010927B0280911202803230F4E0911202D7
:101A7000F0E0EE50FE4F10826091120270E0E091B3
:101A80002F02F091300282EF91E00995109212023C
:101A9000FCCE1092790228CF1F920F920FB60F92B0
:101AA00011240BB60F92EF92FF920F931F932F9377
:101AB0003F934F935F936F937F938F939F93AF93D6
:101AC000BF93CF93DF93EF93FF930FB6F894A8954E
:101AD00081B5886181BD11BC0FBE789485B78F7DBB
:101AE00085BF1092AF01C1E0D1E0D0937C02C093DA
:101AF0009E0210927D0210929F020E945B01811152
:101B000005C08091AF018F5F8093AF01CF5FCF376A
:101B100061F78091AD019091AE01009731F00E9484
:101B200019101092AE011092AD01D091AF01DD23DA
:101B300071F161E070E08D2F90E00E94610F7C01F7
:101B40009093AE018093AD0110E0C1E001E00093FD
:101B50007C02C0939E0210927D0210929F020E940E
:101B60005B01811105C0F701E10FF11DC0831F5F0B
:101B7000CF5FCF3761F7D23050F080918A00887FF5
:101B800080938A0080917D008B7F80937D001092EE
:101B900088001092890085B7806285BFFF91EF9120
:101BA000DF91CF91BF91AF919F918F917F916F9175
:101BB0005F914F913F912F911F910F91FF90EF9067
:101BC0000F900BBE0F900FBE0F901F9018951F9295
:101BD0000F920FB60F9211240BB60F922F933F93D3
:101BE0004F935F936F937F938F939F93AF93BF9325
:101BF000CF93DF93EF93FF937894C5E5D1E0E9911C
:101C0000F991808187FF08C08F772091AC01918185
:101C1000921720F10E94140581E0C339D80779F7A3
:101C200086E984BD8091AC018F5F8032D1F08093D2
:101C3000AC01FF91EF91DF91CF91BF91AF919F9157
:101C40008F917F916F915F914F913F912F910F9065
:101C50000BBE0F900FBE0F901F9018950E9443046B
:101C6000DBCF1092AC01E5CFE0EAF2E01382128202
:101C700088EE93E0A0E0B0E084839583A683B783E9
:101C800087E991E0918380830895789483B78C6489
:101C900083BF87B7816087BF82E08EBD8EB58160CC
:101CA0008EBD8FB581608FBD85B5846085BD85B5DE
:101CB000806485BD80918A00836080938A008091D2
:101CC0008B00816080938B0087E886B91AB80FB6C5
:101CD000F894A89581B5886181BD11BC0FBE1ABA70
:101CE00017BA14BA11BA12B81092610010926400B7
:101CF000E2EFF1E02491EDEBF1E08491882399F09B
:101D000090E0880F991FFC01E456FE4FA591B49115
:101D1000FC01E455FE4F859194918FB7F894EC91B6
:101D2000E22BEC938FBF81E00E94B301109234024A
:101D30001092330210927D0210929F0210927B0249
:101D400081E080937A021092730283E10E94B301D2
:101D500082E10E94B301809171008C7F80937100B9
:101D600088E48093700085E4809374008DE292E0B3
:101D7000909332028093310289E392E09093300293
:101D800080932F0282E0809372008CE08093700039
:101D90008CEB97E090933602809335028BE193E0D1
:101DA0009093380280933702BD9ABC9ABB9ABA9A34
:101DB000B89A179A8F9A8E9A8D9A80916400806152
:101DC0008093640080916400886080936400BE9A70
:101DD000BF9A80916100886080936100809161006A
:101DE00084608093610080916100826080936100D3
:101DF00080916100816080936100D69A8091640037
:101E000082608093640080916400816080936400AC
:101E1000A19AA29AA39AA49A809161008062809369
:101E2000610080916100806480936100D79AA79AD5
:101E3000A69A80916100806180936100A59A05E572
:101E400011E0F801C191D1918F018881982F90689C
:101E500098838F770E941405FFEF29E688E1F150FF
:101E600020408040E1F700C0000088818F778883A0
:101E70000E94430491E00339190719F7E0CFE19973
:101E8000FECF9FBB8EBBE09A99278DB30895262F76
:101E9000E199FECF9FBB8EBBE09A01970DB202166F
:101EA00031F02DBB0FB6F894E29AE19A0FBE089577
:101EB000EE0FFF1F0024001C0BBE0790F691E02DD3
:101EC00009940F931F93CF93DF93869F8001879F81
:101ED000100D969F100D1124C8010E947D0FEC017A
:101EE000009729F0A80170E060E00E94A210CE01E6
:101EF000DF91CF911F910F9108950F931F93CF936F
:101F0000DF938230910510F482E090E0E091AE0220
:101F1000F091AF0230E020E0B0E0A0E0309799F41B
:101F20002115310509F44AC0281B390B243031052D
:101F3000D8F58A819B816115710589F1FB01938335
:101F40008283FE0111C040815181028113814817B3
:101F50005907E0F04817590799F4109761F0129665
:101F60000C93129713961C933296CF01DF91CF9169
:101F70001F910F9108950093AE021093AF02F4CF1A
:101F80002115310551F04217530738F0A901DB0143
:101F90009A01BD01DF01F801C1CFEF01F9CF9093A4
:101FA000AF028093AE02CDCFFE01E20FF31F81930B
:101FB00091932250310939832883D7CF2091AC02E5
:101FC0003091AD02232B41F4209151013091520107
:101FD0003093AD022093AC0220914F01309150011B
:101FE0002115310541F42DB73EB740915301509171
:101FF0005401241B350BE091AC02F091AD02E217C5
:10200000F307A0F42E1B3F0B2817390778F0AC011B
:102010004E5F5F4F2417350748F04E0F5F1F5093F8
:10202000AD024093AC02819391939FCFF0E0E0E04A
:102030009CCFCF93DF930097E9F0FC013297138296
:102040001282A091AE02B091AF02ED0130E020E02B
:102050001097A1F420813181820F931F2091AC024F
:102060003091AD022817390709F061C0F093AD0235
:10207000E093AC02DF91CF910895EA01CE17DF071C
:10208000E8F54A815B819E0141155105B1F7E901EF
:10209000FB83EA8349915991C40FD51FEC17FD07C3
:1020A00061F4808191810296840F951FE9019983E3
:1020B0008883828193819B838A83F0E0E0E012969B
:1020C0008D919C9113970097B9F52D913C911197A3
:1020D000CD010296820F931F2091AC023091AD0288
:1020E0002817390739F6309751F51092AF02109240
:1020F000AE02B093AD02A093AC02BCCFD383C28337
:1021000040815181840F951FC817D90761F44E5F34
:102110005F4F88819981480F591F518340838A817D
:102120009B81938382832115310509F0B0CFF09311
:10213000AF02E093AE029ECFFD01DC01C0CF13825F
:102140001282D7CFDC0101C06D9341505040E0F7BF
:062150000895F894FFCF92
:102156001FFF1EFF1DFF1CFF1BFF1AFF19FF18FFA5
:1021660017FF16FF15FF14FF13FF12FF11FF10FFD5
:102176000FFF0EFF0DFF0CFF0BFF0AFF09FF08FF05
:1021860007FF06FF05FF04FF03FF02FF01FF0163D0
:102196000200000000000000000000000000000037
:1021A60000B00280003C013A0138013601340132A8
:1021B6000130012E012C012A0128012601240122C9
:1021C6000120011E011C011A011801160114011239
:1021D6000110010E010C010A0108010601040102A9
:1021E60001000100000000EC02BF0233039C026400
:0621F60002AC029D020094
:00000001FF
