:100000000C945F010C94B0110C9485110C945A114E
:100010000C942F110C9404110C94D9100C94AE1064
:100020000C9483100C9489010C94A6130C948901F0
:100030000C9489010C9489010C9489010C94890118
:100040000C9439100C9489010C9489010C94890149
:100050000C9489010C9489010C9489010C948901F8
:100060000C9489010C9489010C9489010C948901E8
:100070000C9489010C940B130C9489010C94890144
:100080000C9489010C94DB110C9489014403000049
:10009000000000120D0000000000000101C08000FF
:1000A000000000000000000000060000000000004A
:1000B0000000000000000000000000000000000040
:1000C0000000000000003F000000000000000000F1
:1000D0000000000000000000000000000000000020
:1000E0000000000000000000000000000000000010
:1000F00000000000000000000000000002001C00E2
:1001000003001C0004001C0005001C0006001C006D
:1001100007001C0008001C0009001C000A001C004D
:100120000B001C000C001C000D001C000E001C002D
:100130000F0010001000100011001000120010003D
:10014000130010001400100015001000160010001D
:1001500017001000180010001900100001001C000A
:1001600001001C0001001C0001001C0001001C001B
:1001700000801F0000811F00FF000000FF00000042
:10018000FF000000FF000000FF000000FF00000073
:10019000FF000000FF000000FF000000700074007E
:1001A00078007C008000840088008C00900094001F
:1001B00098009C00A000A400A800AC00B000B4000F
:1001C000B800BC00C000C400C800CC00D000D400FF
:1001D000D800DC00E000E400E800EC00F000F400EF
:1001E000F800FC000001040108010C0100003A00C5
:1001F0003700340031002200610064000000390043
:1002000036003300300021002000630000003B0076
:100210003800350032002300620065000505050541
:100220000505050502020202020202020707040494
:100230000404040404040707030303030303030380
:100240000701010101010101010606060606060675
:10025000060102040810204080010204081020401A
:1002600080081001020408102040800102010204ED
:100270000810204080048040201008040201010280
:100280000408102040800000000A0B0C0000000051
:10029000000001040506000000000000000000004E
:1002A000000000000000000000000000000000004E
:1002B000000000000000000000000000F313112403
:1002C0001FBECFEFD0E1DEBFCDBF11E0A0E0B1E0B7
:1002D000E6E1FFE200E00BBF02C007900D92A63AF4
:1002E000B107D9F724E0A6EAB1E001C01D92A13D13
:1002F000B207E1F711E0CFE5D1E004C02197FE019C
:100300000E943816CE35D107C9F70E9404140C9408
:1003100089170C9400009091C00481E0913208F09C
:1003200043C080919C048111FCCF8091BF0422E0E6
:1003300020939C0421E020939B042FEF20939A04A8
:100340002FE934E030939904209398041092970495
:10035000909396041092950490919504880F892BA0
:100360008093950480919404813029F5109294042F
:1003700080919504809373008091740083FDF8CF81
:1003800085EC8093740080919C048230E1F380912D
:100390009A048F3F91F080919A04803281F080918D
:1003A0009A04803371F084E010929E041092C0048D
:1003B00010929D04089585EEE4CF80E0F5CF82E0B1
:1003C000F3CF83E0F1CF90E0FC01EA57FD4F249199
:1003D000FC01EF5AFD4F3491845E9D4FFC018491E6
:1003E000882341F12223C1F021502C30A8F4E22FC0
:1003F000F0E0E350FE4F0C943816330233020C0247
:1004000009021B021E0221020C020C0225022B0211
:100410002F029FB59F779FBDE82FF0E0EE0FFF1FE3
:10042000E45FFD4FA591B4918FB7F894EC913E2B0A
:100430003C938FBF08959FB59F7DEDCF9FB5977F6C
:10044000EACF95B59F7D95BDE7CF90918B009F77C3
:1004500090938B00E1CF90918B009F7DF9CF90918D
:100460008B00977FF5CF93B79F7D93BFD5CFE82FB4
:10047000F0E0E658FB4F8085861739F06087618B86
:1004800080917C04836080937C040895262F30E063
:10049000909180049078691729F090917C049C6079
:1004A00090937C043695322F222737952795822BFF
:1004B00080938004809381040895E0915702F09125
:1004C0005802309729F010929E041092C0040994AB
:1004D0000895CF93DF93AC01E0915502F09156025D
:1004E0003097F1F090915402809153029817C0F028
:1004F00090E0292F30E02617370754F4D901AB5488
:10050000BE4F240F351FE90128812C939F5FF1CF47
:100510001092540260935302CB01DF91CF91099462
:10052000DF91CF910895CF93DF9390E0FC01EF5AD4
:10053000FD4F2491845E9D4FFC0184918823C9F076
:1005400090E0880F991FFC01E451FE4FA591B491F2
:10055000FC01E45FFD4FC591D49161110DC09FB7BF
:10056000F8948C91209582238C938881282328836A
:100570009FBFDF91CF910895623051F49FB7F894F7
:100580003C91822F809583238C93E8812E2BEFCF93
:100590008FB7F894EC912E2B2C938FBFEACF3FB7F7
:1005A000F89480914B0290914C02A0914D02B09131
:1005B0004E0222B706B600FE05C02F3F19F0019685
:1005C000A11DB11D3FBFBA2FA92F982F8827BC01AD
:1005D000CD01620F711D811D911D42E0660F771FD5
:1005E000881F991F4A95D1F70895883008F5E82F9C
:1005F000F0E0EE0FFF1FE15CFE4F718360838150DE
:10060000873068F4E82FF0E0E85FFC4F0C94381670
:100610001903260334034203490354036003809102
:100620006A008C7F482B40936A0089B7816089BF3C
:10063000089580916A00837F440F551F440F551F12
:10064000482B40936A0089B78260F1CF80916A009D
:100650008F7C74E0440F551F7A95E1F7482B409347
:100660006A0089B78460E3CF80916A008F7366E087
:10067000440F551F6A95E1F7482B40936A0089B7EC
:100680008860D5CF8AB78C7F482B4ABF89B78061F5
:10069000CECF8AB7837F440F551F440F551F482B79
:1006A0004ABF89B78062C3CF8AB78F7C24E0440FEA
:1006B000551F2A95E1F7482B4ABF89B78064B7CF09
:1006C0008AB78F7396E0440F551F9A95E1F7482B30
:1006D0004ABF89B78068ABCFFF920F931F93CF9328
:1006E000DF930E94CF022091B3013091B401EB015E
:1006F000C21BD30B20915D0230915E02C217D3075B
:1007000008F461C040916702509168024130510580
:1007100061F0E0919002F09191022081309192027B
:10072000232330915B0223134EC07093B401609376
:10073000B30100915F02109160024230510509F44B
:1007400019C14330510509F454C14130510561F4D8
:100750008091B201813009F449C0D8F1833009F4A5
:1007600086C0843009F4CFC08091670290916802FE
:10077000019749F1C017D10708F073C18091B0010A
:100780008F5F8093B0018B30F0F081E090E0909328
:1007900068028093670241E050E06CE673E080916C
:1007A0008E020E94F50210925B021092B20182E565
:1007B00090E09093600280935F0283E290E09093D8
:1007C0005E0280935D02DF91CF911F910F91FF90A8
:1007D0000895C017D10730F481E08093B201C0932F
:1007E000B101C2CF84E08093B201BECFC017D10760
:1007F000E0F51092B2018091B0018F5F8093B0015B
:100800002091B1018C2F0C2E000C990B821B9109A9
:1008100027FD939597FF03C091958195910949977D
:1008200094F2109268021092670282E990E090932D
:10083000600280935F0282E590E090935E02809375
:100840005D021092B001F0905C024F2D50E06CE61A
:1008500073E080918E020E94F5028091920293E0F3
:10086000F91229C080935B027FCF83E0BCCFC01711
:10087000D10718F5109268021092670282E990E0A1
:100880009093600280935F0282E590E090935E0215
:1008900080935D021092B001F0905C024F2D50E009
:1008A0006CE673E080918E020E94F50280919202C4
:1008B00033E0F316B9F280E0D5CF90915C0293302B
:1008C00009F482E080935C0282E090E090936802F9
:1008D0008093670282E990E09093600280935F02C8
:1008E00082E590E090935E0280935D0210926D022B
:1008F0008091B00180936E0210926A0210926C0295
:1009000010926B02C9CFC017D107A8F410926802E9
:100910001092670282E990E09093600280935F02F8
:1009200082E590E090935E0280935D021092B001A8
:1009300010926A0288CF82E090E0909368028093E0
:10094000670282E990E09093600280935F0282E503
:1009500090E090935E0280935D0210926D02809110
:10096000B00180936E0210926A0210926C02109293
:100970006B0269CF90916A029F5F90936A028091A7
:100980006B02880FC017D107E0F080936B0298309C
:1009900009F0F0CEE0916D02E630A9F41092680201
:1009A0001092670282E990E09093600280935F0268
:1009B00082E590E090935E0280935D0210926A025D
:1009C000D3CE8160E2CF83E090E090936802809381
:1009D000670290916B0281E08E0F80936D02F0E0D0
:1009E000E959FD4F908780916C02892780936C02B2
:1009F000BBCEC017D10728F510926802109267028B
:100A000010926A0282E990E09093600280935F0204
:100A100082E590E090935E0280935D0280916C028B
:100A20008111ACCE88E0EDE6F2E0A5E7B2E00190FE
:100A30000D928A95E1F781E0809369021092B001EE
:100A400093CE80916D02863009F4A8CF82E090E0C9
:100A5000909368028093670210926A0210926B0270
:100A600083CE1092B001AFCE0895DC011496ED91C3
:100A7000FC911597908111968C91809589238083A4
:100A80000895CF93DF93DC01EC91F0E0EE0FFF1FB0
:100A9000E450FE4FC591D491988111968C91982382
:100AA00081E009F480E0DF91CF910895DC01129696
:100AB000ED91FC91139711969C9111978081611192
:100AC0000EC09095982390831496ED91FC91159704
:100AD000908111968C918095892380830895982B1D
:100AE000908308958091530290915402891B990B31
:100AF000089585ED809374008091740084FDFCCF8F
:100B000010929C0408952091F501260F3327331F7E
:100B100021323105ECF420919C04FC0190E080E04E
:100B2000243069F082E00895A091F5012191AC0193
:100B30004B525E4FA40FB52FB11D2C930196861713
:100B400098F38091F501680F6093F50180E00895B6
:100B500081E008950895E091540280915302E817CE
:100B600030F4F0E0EB54FE4F808190E008958FEF79
:100B70009FEF089590915402809153022FEF3FEF21
:100B8000981748F4E92FF0E0EB54FE4F208130E055
:100B90009F5F90935402C9010895CF92DF92EF9224
:100BA000FF920F931F93CF93DF937C01CB018A01B8
:100BB00020919D04222389F0EB016B01C40ED51E08
:100BC000CC15DD0569F06991D701ED91FC9101909B
:100BD000F081E02DC7010995F3CF642F0E948305B2
:100BE000C801DF91CF911F910F91FF90EF90DF909F
:100BF000CF900895CF93DF931F92CDB7DEB769836F
:100C000020919D042223F9F02091C004203258F055
:100C100021E030E0FC013383228390E080E00F90FC
:100C2000DF91CF91089580919E04E82FF0E0E15686
:100C3000FB4F998190838F5F80939E048093C004C3
:100C400081E090E0ECCF61E0CE0101960E94830547
:100C5000F7CF1F93CF93DF93CCE2D2E01881698165
:100C600081EC94E00E94FA05612F81EC94E00E94EF
:100C7000FA056A8181EC94E0DF91CF911F910C9489
:100C8000FA0590E080E0089580E090E0892B29F05B
:100C90008091960283FD0C9400000895009731F135
:100CA00060917D0470917E048617970709F06DC0EE
:100CB00041504A30D8F4E42FF0E0EF59F94F0C944A
:100CC00038166B067706820692069906A006A706D6
:100CD000AE06B506BD0680918204281739F0209330
:100CE000820480917C04816080937C0408959091BB
:100CF000830480EF820F292B28239217B9F32093C6
:100D00008304EFCF3091830440E1249FC00111247C
:100D1000832B2295207F215F8223381739F380931C
:100D20008304DFCF80918404281701F32093840487
:100D3000D8CF809185042817C9F220938504D1CF9C
:100D400080918604281791F220938604CACF80915F
:100D50008704281759F220938704C3CF8091880411
:100D6000281721F220938804BCCF8091890428178A
:100D700009F4BCCF20938904B4CF80918A0428174A
:100D800009F4B4CF20938A04ACCF30917F043F772D
:100D90003817190609F0AACF4230A1F018F44130F3
:100DA00031F008954330D1F0443049F108958091F5
:100DB0008B04281709F49ACF20938B0480917C042C
:100DC000826092CF90918C0480EF820F292B282390
:100DD000921709F48BCF20938C04F0CF30918C04C0
:100DE00040E1249FC0011124832B2295207F215FA5
:100DF0008223381709F47ACF80938C04DFCF809157
:100E00008D04281709F472CF20938D04D7CF0F9348
:100E1000009721F160917D0470917E0486179707F9
:100E200029F5822F90E0309180043078231729F043
:100E300020917C04246020937C040D3189F00F37CD
:100E400079F00F3081F49C013695322F22273795A7
:100E5000279580918004822B809380040F910895C0
:100E600040938004F0CF10928004EDCF30917F0446
:100E70003F773817190691F7822F90E0309181045F
:100E80003078231729F020917C04286020937C047B
:100E90009695982F882797958795482B409381049E
:100EA000DDCF81508F3108F07CC0E82FF0E0E55AAB
:100EB000F84F0C9438167A077C077E078007820764
:100EC0008407860788078A078C0792079607980782
:100ED0009A07A007A407A807AC07AE07B207B60792
:100EE000B807BA07BC07BE07C207C607C807CA07C4
:100EF000CC07D007C5980895C4980895C39808955D
:100F0000C2980895C09808951F98089597980895D5
:100F10009698089595980895809165008F7E8093A6
:100F20006500089580916500877FF9CFC698089580
:100F3000C798089580916200877F8093620008952A
:100F4000809162008B7FF9CF809162008D7FF5CF19
:100F5000809162008E7FF1CFDE98089580916500C8
:100F60008D7FDDCF809165008E7FD9CFA9980895C0
:100F7000AA980895AB980895AC980895809162005E
:100F80008F7DDBCF809162008F7BD7CFDF98089574
:100F9000AF980895AE980895809162008F7ECDCF6E
:100FA000AD9808951F93CF93DF93EC018A819B81C5
:100FB00010E0892BE9F48D819E8110E0892B69F581
:100FC00088818E7F8883DF91CF911F910895812F33
:100FD00090E0880F991FEA81FB81E80FF91F0190CB
:100FE000F081E02D80818F7780830E9451071F5F01
:100FF0008981181760F3DFCF812F90E0880F991F48
:10100000ED81FE81E80FF91F0190F081E02D8081D4
:101010008F7780830E9451071F5F8C81181760F3C0
:10102000CFCFFC0190819570953019F4CF010C94CD
:10103000D2070895FC01208120FF03C022FF0C94F9
:10104000D207089581508F3108F07CC0E82FF0E07E
:10105000E45DF74F0C9438164B084D084F085108C3
:1010600053085508570859085B085D086308670866
:1010700069086B087108750879087D087F0883087E
:10108000870889088B088D088F08930897089908A6
:101090009B089D08A108C59A0895C49A0895C39A0B
:1010A0000895C29A0895C09A08951F9A0895979A2C
:1010B0000895969A0895959A0895809165008061A3
:1010C000809365000895809165008860F9CFC69A85
:1010D0000895C79A089580916200886080936200A5
:1010E0000895809162008460F9CF809162008260EF
:1010F000F5CF809162008160F1CFDE9A08958091F2
:1011000065008260DDCF809165008160D9CFA99AAA
:101110000895AA9A0895AB9A0895AC9A089580917B
:1011200062008062DBCF809162008064D7CFDF9A5B
:101130000895AF9A0895AE9A0895809162008061F3
:10114000CDCFAD9A089590917C04882361F0906191
:1011500090937C0481E00E94220880918A00887F1D
:1011600080938A0008959F7E90937C0481E00E9482
:101170005107109288001092890080918A00846043
:10118000EFCFCF93C82F80917F028C1719F08C2F4F
:101190000E94A308C0937F02CC23F9F02FB7F894E4
:1011A0008091630290916402A0916502B091660201
:1011B0002FBF482F392F2A2F8B2F40938002309337
:1011C0008102209382028093830280917F028C1798
:1011D00049F08C2FCF910C94A30840E030E020E040
:1011E00080E0EBCFCF9108950F931F93CF938C01A5
:1011F000C0E0F8018181C81720F0CF911F910F91B5
:1012000008958C2F90E0880F991FD8011296ED91C8
:10121000FC91E80FF91F0190F081E02D8081982F5B
:10122000906890838F770E942208CF5FE2CF1F9350
:10123000CF93DF93EC01288120FD15C022FF13C05E
:10124000322F3160388321FF09C02A813B81232B53
:1012500051F0DF91CF911F910C94F4082D813E81C4
:1012600010E0232BB9F4DF91CF911F910895812FC6
:1012700090E0880F991FED81FE81E80FF91F019022
:10128000F081E02D8081982F906890838F770E9465
:1012900022081F5F8C81181750F3E5CFCF93DF939F
:1012A000EC018881982F9270691789F0662369F0A4
:1012B00082608883888180FF0AC0CE010E94110865
:1012C000CE01DF91CF910C9417098D7FF2CFDF9182
:1012D000CF9108951F93CF93DF93EC012881322F94
:1012E000357099F4322F3160388321FF09C02A818B
:1012F0003B81232B51F0DF91CF911F910C94F40887
:101300002D813E8110E0232BB9F4DF91CF911F9105
:101310000895812F90E0880F991FED81FE81E80FDD
:10132000F91F0190F081E02D8081982F90689083C3
:101330008F770E9422081F5F8C81181750F3E5CF2A
:10134000CF93DF93EC018881982F9270691789F011
:10135000662369F082608883888180FF0AC0CE019D
:101360000E941A08CE01DF91CF910C946A098D7FFB
:10137000F2CFDF91CF910895A89A8FE79EE301976E
:10138000F1F700C00000A89808950C94BC091F93C1
:10139000CF93DF93EC0180917C0484FF0BC08FE03E
:1013A00090E00E941216182F80E190E00E94121621
:1013B000181306C0CE01DF91CF911F910C94121625
:1013C000FFCF0C94C709CF93DF9320919302309104
:1013D00094022F3F320721F0C901DF91CF91089588
:1013E0008091960287FF2BC086FF0FC089E090E0B6
:1013F0000E94E109C82F81E090E00E94E1099C2F42
:10140000909394028093930215C089E090E00E942B
:10141000E109C82F81E090E00E94E10990E4C99FB2
:1014200090011124207C31708F73282B309394020B
:10143000209393028091930290919402CECF85FFE6
:101440000CC081E190E00E94E109C82F82E190E0A8
:101450000E94E109C05CDD0BD2CF81E090E00E94E8
:10146000E10990E0CDCFCF93863823E0920719F1C0
:1014700038F4813823E09207D9F0CF910C941216FA
:10148000873823E09207D1F0883823E09207A9F744
:1014900086E893E00E941216C82F87E893E00E9426
:1014A000121690E02FEFC29F800D911D1124E5CF01
:1014B00081E893E0E2CF86E893E0DFCF87E893E02E
:1014C000DCCF0E94C108EDE7F2E081E0878310865F
:1014D000E6E8F2E088E0DF011D928A95E9F70895D9
:1014E0000F931F93CF93DF93EC01162FC63883E041
:1014F000D80781F150F4C13883E0D807F9F0612FA3
:10150000CE010E941A16CE011FC0C73883E0D8074B
:1015100041F1C83883E0D80791F786E893E00E944C
:101520001216082F87E893E00E941216C82FD0E009
:101530008FEF089FC00DD11D1124E1CF81E893E00A
:101540000E941A1681E893E0DF91CF911F910F91CD
:101550000C94121686E893E00E941A1686E893E02F
:10156000F3CF87E893E00E941A1687E893E0ECCF68
:10157000CF93DF93D0E0C0E0FE01E457FF4F6491CA
:10158000CE010E941A162196C03181E0D807A1F73A
:1015900061E081E893E00E941A16C0E0CF5F8C2FD3
:1015A0000E942208CF31D1F7DF91CF9108950C949A
:1015B000B80A1F93CF93DF9320913E012223C1F0FD
:1015C0002FEF3FEF30931B0220931A0230931F023C
:1015D00020931E023093230220932202309327028D
:1015E0002093260230932B0220932A0210923E0170
:1015F00082309105C9F08330910509F458C020E08C
:1016000030E0232B11F00E94000080915302909152
:101610005402891B990B181619060CF044C081EC72
:1016200094E00E94BA05F1CFE8E1F2E0D0E0C0E03A
:10163000828193810196E9F4CC0FDD1FCC0FDD1F71
:10164000C85EDD4F1B821A8281EC94E00E94BA05CD
:10165000888381EC94E00E94BA058983E09161025D
:10166000F09162023097C9F4D0936202C093610294
:101670001AC021963496C530D105D1F68091530217
:1016800090915402891B990B1816190664F481EC89
:1016900094E00E94BA05F2CFFC0182819381009709
:1016A000D9F7D383C283DF91CF911F91089581EC45
:1016B00094E00E94BA05182F81EC94E00E94BA05CC
:1016C000D12F90E0C92FC80FD11DD0932D02C09308
:1016D0002C0281EC94E00E94BA05682F80932E02C0
:1016E000CE01D7FF21C09F7790932D0280932C02CB
:1016F0008830910561F0843823E0920741F08C3AFC
:1017000023E0920721F0843D23E0920741F481E831
:10171000683039F4DF91CF911F910C94B80A0E9480
:10172000700A80932E02BFCF0E94330AFACF1F9314
:10173000CF93DF93EC01162F089779F4662319F104
:101740000E94B80A80E090E0892BB9F0612FCE01A9
:10175000DF91CF911F910C94000080E090E0892BE5
:10176000A9F781E0C11590E1D90708F080E01111D7
:1017700005C0DF91CF911F91089581E027972297AF
:10178000C0F780E0F6CF80E090E0892BF9F681E0A9
:10179000F0CF0F931F93CF93DF93EC01162F80911F
:1017A0007C0484FF25C0CF30D10561F48FE090E048
:1017B0000E941A168FE090E0DF91CF911F910F9158
:1017C0000C9412168FE090E00E941216082F80E110
:1017D00090E00E94121608130AC0C730D10531F0FC
:1017E000C830D10529F4183049F0FFCFFFCFFFCF23
:1017F000612FCE010E941A16CE01DECF0E94B80AD8
:1018000088E0DF91CF911F910F9108958331910569
:1018100088F48131910530F48130910519F08930D7
:10182000910531F42FEF3FEF309394022093930210
:101830000C94C90B8D319105D9F7677F609396029F
:1018400020917D022F73362F307C232B20937D0235
:10185000E9CFBF92CF92DF92EF92FF920F931F9347
:10186000CF93DF938B01B42E690182FF23C083FFE6
:1018700017C061E0C8010E94970B8823D9F16B2D36
:10188000C8010E94060C8B1135C0F601DF91CF9183
:101890001F910F91FF90EF90DF90CF90BF90099430
:1018A00060E0C8010E94970B882321F1C8010E94C3
:1018B000E109E9CF842F8770C1E0D0E07E0101C04B
:1018C000EE0C8A95EAF7D42FD870CB010E94E1097B
:1018D000C82FB4FE1CC061E0C8010E94970B88238A
:1018E00049F0DD2389F0CE296C2FC8010E94060C37
:1018F0008C1759F2DF91CF911F910F91FF90EF90CC
:10190000DF90CF90BF900895E094CE21EDCF60E0BE
:10191000C8010E94970B882369F3CE21DD2319F0BB
:10192000C111B3CFE7CFCC2309F4AFCFE3CFAF9250
:10193000BF92DF92EF92FF920F931F93CF93DF93AB
:101940007C01162FC42FD22ED42FD07E80917D0201
:1019500087FF2CC0D03EC1F5A0907E02AA20A1F145
:10196000B12CC5010E94E109D82FC50101960E9442
:10197000E109982F8D2FE816F90631F56C2F70E0EC
:10198000762F6627662773706D296F5F7F4F24E47B
:1019900036E0402F8C2FDF91CF911F910F91FF9058
:1019A000EF90DF90BF90AF900C94290C80FD33C076
:1019B000D03609F464C090F4D03209F449C0D03470
:1019C00009F45DC0DD2381F1DF91CF911F910F916B
:1019D000FF90EF90DF90BF90AF900895D03A09F458
:1019E00084C090F42C2F2F7141E0D03869F7612F1B
:1019F000C701DF91CF911F910F91FF90EF90DF9082
:101A0000BF90AF900C944E06D03C09F475C0D03E08
:101A100009F4B4CFD9CF0E94E3098E159F0541F296
:101A2000E114F10429F2D0CF8C2F8E7069F680E09A
:101A300090E0892B49F28C2F8170DF91CF911F911B
:101A40000F91FF90EF90DF90BF90AF900C9400004B
:101A5000CF71CF3109F0B8CF4D2D4F7761F04130C4
:101A600061F02D2D221F2227221F0DE1612FC701BA
:101A70000E940707A9CF41E0F4CF40E0F2CF2C2F1E
:101A800030E08C2F8F71813029F030F0803121F0DF
:101A9000813109F540E001C041E095E03595279599
:101AA0009A95E1F721700DE1612FC7010E940707A8
:101AB00080E090E0892B09F487CF4C2F612FC7017C
:101AC000DF91CF911F910F91FF90EF90DF90BF902A
:101AD000AF900C940000C901880F991F8E71C4FB50
:101AE000442740F9482B4250D8CF2C2F2F7043E089
:101AF000C4FF7DCF42E07BCFCF71CE3131F0CF310B
:101B000009F062CF2D2D45E072CF2D2D44E06FCF2F
:101B10004F925F926F927F928F929F92AF92BF92FD
:101B2000CF92DF92EF92FF920F931F93CF93DF93A9
:101B3000C0915902D0915A0280914202811116C07F
:101B40002FB7F8948091630290916402A09165028E
:101B5000B09166022FBF80933E0290933F02A09304
:101B60004002B093410281E08093420280913602AC
:101B7000811111C00E94CF02605171098109910940
:101B80006093320270933302809334029093350253
:101B900081E0809336020E94CF022B013C018FB777
:101BA000F894C0906302D0906402E0906502F090D7
:101BB00066028FBF80913E02BC2CB81A809132021F
:101BC000909133029201281B390BC90120913102F7
:101BD000211169C0FE0130E020E045815681C41723
:101BE000D50709F056C045E0429F8001439F100D84
:101BF00011240E5F1F4F0C0F1D1F10933002009316
:101C00002F020115110509F458C0F801148213823E
:101C10008031910508F492C1853F914008F0B4C12C
:101C20008D8D9E8D0E944105F801808381E0809317
:101C3000310240923202509233026092340270922A
:101C40003502F6E0FB1508F47DC18D8D9E8D0E9456
:101C50004105A0902F02B090300290913102E92FFF
:101C6000E695E695E695292F277041E050E060E083
:101C700070E004C0440F551F661F771F2A95D2F7E6
:101C8000EA0DFB2DF11D811129C04095808148236B
:101C900027C02F5F3F4F35962530310509F09DCF86
:101CA00010E000E0AACF26E02B1508F44BC18031EC
:101CB000910518F0853F914040F2DF91CF911F913F
:101CC0000F91FF90EF90DF90CF90BF90AF909F90DB
:101CD0008F907F906F905F904F9008958081482BF8
:101CE000408381E0890F809331024092320250920A
:101CF00033026092340270923502982F9770E9F6A1
:101D00008031E9F4F5018081873780F4EB8DFC8D1B
:101D1000309721F4BC8EAB8E07C0FC018381948187
:101D20000097D9F7B482A38210923102C0923E028A
:101D3000D0923F02E0924002F0924102BECF883141
:101D4000A9F7F50111811F778DEF782E710EF7E25B
:101D5000F71580F088818130A1F4812E912C1D32FD
:101D600020F51B3228F4112351F121E0271508F149
:101D70008DE026C085ED810F883250F48881823055
:101D800061F3E0912F02F0913002D483C383CCCF72
:101D90008DEA810F883220F48881833091F7DDCF7E
:101DA0008EEF810F8230C8F6ECCF8DEA810F823042
:101DB000F8F2C4018F579C4F0E94330A01C08881FA
:101DC000F501028190819B3739F19F3709F46CC08E
:101DD0009737B9F60813D5CF61E08D8D9E8D0E949F
:101DE00056058D8D9E8D0E9435058FE697E10197F2
:101DF000F1F700C00000AD8DBE8D1496ED91FC9101
:101E00001597808111969C91892B808360E08D8D40
:101E10009E8D0E945605B5CF202F2870302F377029
:101E200004FF35C01D3278F51B3208F0AACF91E0CF
:101E3000971508F0A6CF41E050E060E070E004C0E4
:101E4000440F551F661F771F3A95D2F7182F142B92
:101E5000211103C0142F10951823612FC4018F572F
:101E60009C4F0E94700A18138CCF61E08D8D9E8D5F
:101E70000E9456058D8D9E8D0E943505EFE6F7E197
:101E80003197F1F7B6CF13551230A8F67ACF90E01C
:101E900002C0959587953A95E2F7817099272817A2
:101EA000190609F06ECF98CF1B32D9F190F5133097
:101EB000C1F1143009F465CF602FC4018F579C4FD6
:101EC0000E94700A08131FC061E08D8D9E8D0E94D4
:101ED00056058D8D9E8D0E9435058FE697E1019701
:101EE000F1F700C00000AD8DBE8D1496ED91FC9110
:101EF0001597808111969C91892B808360E08D8D50
:101F00009E8D0E94560511113CCF043078F4088351
:101F100038CF133531F0143509F433CF1C3261F664
:101F200030CF083081F70E94B80A9FCF61E081E886
:101F300093E00E94700A81E0888323CFF6E0FB15CE
:101F400008F0BBCE99E09B1508F0B7CEC0923E02D8
:101F5000D0923F02E0924002F092410200912F02A3
:101F6000109130028D8D9E8D0E944105F801808375
:101F700081E08093310240923202509233026092AB
:101F800034027092350299CE26E02B15D8F295CE08
:101F90009F92AF92BF92CF92DF92EF92FF920F93F8
:101FA0001F93CF93DF937C016B01942E81E0F701A7
:101FB000481328C0A280B380E7012196A114B10480
:101FC00031F562E070E081E090E00E9441168C0102
:101FD000009731F0FC01D182C08288818F5F8883B5
:101FE000F1E09F1242C0F70113830283DF91CF918A
:101FF0001F910F91FF90EF90DF90CF90BF90AF9027
:102000009F900895A580B680E7012496D7CF888158
:102010008F5F8883C82FD0E062E070E0CE010E941D
:1020200041168C0120E0AE0141505109822F90E011
:102030008417950764F0C150D048CC0FDD1FC00F46
:10204000D11FD982C882C5010E94F916C9CF880F55
:10205000991FF501E80FF91F60817181800F911FB1
:10206000FC01718360832F5FE1CFF7011683058345
:10207000BDCF1F920F920FB60F9211242F933F9353
:102080008F939F93AF93BF9380916302909164026B
:10209000A0916502B091660230914A0223E0230FBD
:1020A0002D3768F126E8230F0296A11DB11D20935C
:1020B0004A028093630290936402A0936502B093F6
:1020C000660280914B0290914C02A0914D02B0911A
:1020D0004E020196A11DB11D80934B0290934C02BC
:1020E000A0934D02B0934E02BF91AF919F918F91FB
:1020F0003F912F910F900FBE0F901F901895019652
:10210000A11DB11DD4CF1F920F920FB60F921124B3
:102110000BB60F922F933F934F935F936F937F93E1
:102120008F939F93AF93BF93EF93FF93E0914D01F4
:10213000F0914E010995FF91EF91BF91AF919F9161
:102140008F917F916F915F914F913F912F910F9060
:102150000BBE0F900FBE0F901F9018951F920F92FD
:102160000FB60F9211240BB60F922F933F934F93FC
:102170005F936F937F938F939F93AF93BF93EF93EF
:10218000FF93E0914B01F0914C010995FF91EF9184
:10219000BF91AF919F918F917F916F915F914F917F
:1021A0003F912F910F900BBE0F900FBE0F901F907D
:1021B00018951F920F920FB60F9211240BB60F9223
:1021C0002F933F934F935F936F937F938F939F933F
:1021D000AF93BF93EF93FF93E0914901F0914A01D0
:1021E0000995FF91EF91BF91AF919F918F917F9151
:1021F0006F915F914F913F912F910F900BBE0F9078
:102200000FBE0F901F9018951F920F920FB60F924E
:1022100011240BB60F922F933F934F935F936F93BD
:102220007F938F939F93AF93BF93EF93FF93E0912F
:102230004701F09148010995FF91EF91BF91AF914E
:102240009F918F917F916F915F914F913F912F91CE
:102250000F900BBE0F900FBE0F901F9018951F92FE
:102260000F920FB60F9211240BB60F922F933F933C
:102270004F935F936F937F938F939F93AF93BF938E
:10228000EF93FF93E0914501F09146010995FF918D
:10229000EF91BF91AF919F918F917F916F915F91DE
:1022A0004F913F912F910F900BBE0F900FBE0F904B
:1022B0001F9018951F920F920FB60F9211240BB614
:1022C0000F922F933F934F935F936F937F938F93CF
:1022D0009F93AF93BF93EF93FF93E0914301F091EE
:1022E00044010995FF91EF91BF91AF919F918F911B
:1022F0007F916F915F914F913F912F910F900BBE06
:102300000F900FBE0F901F9018951F920F920FB64F
:102310000F9211240BB60F922F933F934F935F931D
:102320006F937F938F939F93AF93BF93EF93FF939D
:10233000E0914101F09142010995FF91EF91BF9128
:10234000AF919F918F917F916F915F914F913F914D
:102350002F910F900BBE0F900FBE0F901F901895EE
:102360001F920F920FB60F9211240BB60F922F935C
:102370003F934F935F936F937F938F939F93AF930D
:10238000BF93EF93FF93E0913F01F09140010995D6
:10239000FF91EF91BF91AF919F918F917F916F913D
:1023A0005F914F913F912F910F900BBE0F900FBEF9
:1023B0000F901F9018951F920F920FB60F92112435
:1023C0000BB60F922F933F934F935F936F937F932F
:1023D0008F939F93AF93BF93EF93FF93809171007F
:1023E000887F803609F44DC008F040C0883209F477
:1023F000A9C028F5803109F49DC0C8F4882309F4E8
:1024000007C1883009F496C0FF91EF91BF91AF9159
:102410009F918F917F916F915F914F913F912F91FC
:102420000F900BBE0F900FBE0F901F901895883124
:1024300009F488C0803241F780939A0414C0803434
:1024400009F4A5C040F48033B9F38833E9F68093EA
:102450009A0485ECBCC0803509F489C0883509F43C
:102460009EC0883489F60E947905CECF883909F458
:1024700094C038F5883729F050F4883611F0803749
:1024800019F683E080939C041092170257C0883895
:1024900009F483C0803919F0803809F0B5CF8091F4
:1024A0001702803208F079C0E091170281E08E0FA8
:1024B0008093170280917300F0E0E950FE4F808313
:1024C0003DC0803B39F0E0F4803A09F485C0883A99
:1024D00009F09ACF84E080939C041092F601109248
:1024E000F501E0915102F091520209958091F501B8
:1024F00081110FC081E08093F5011092D50109C0D0
:10250000803C09F4A6CF883C09F4A3CF883B09F0AE
:102510007BCFE091F60181E08E0F8093F601F0E031
:10252000EB52FE4F8081809373009091F601809171
:10253000F50131C0809195048093730085EC809300
:10254000740062CF90919704809196049817B8F523
:102550008091980490919904E091970421E02E0FC6
:1025600020939704E80FF92FF11D8081E5CF20918A
:10257000980430919904E091970481E08E0F809344
:10258000970480917300E20FF32FF11D80839091E7
:10259000970480919604981788F285E8D0CF20910F
:1025A000980430919904E091970481E08E0F809314
:1025B000970480917300E20FF32FF11D80838091C7
:1025C0009B04811150CF81E08093940484EA80932E
:1025D000740010929C0418CF85EC809374001092C4
:1025E0009C0480911702803230F4E0911702F0E0F1
:1025F000E950FE4F10826091170270E0E0914F02A7
:10260000F091500287EF91E0099510921702FCCEED
:1026100010929A0428CF1F920F920FB60F92112496
:102620000BB60F92EF92FF920F931F932F933F934E
:102630004F935F936F937F938F939F93AF93BF93CA
:10264000CF93DF93EF93FF930FB6F894A89581B5DE
:10265000886181BD11BC0FBE789485B78F7D85BF21
:102660001092AF01C1E0D1E0D0939D04C093BF04AC
:1026700010929E041092C0040E948B01811105C02B
:102680008091AF018F5F8093AF01CF5FCF3761F74C
:102690008091AD019091AE01009731F00E94F91642
:1026A0001092AE011092AD01D091AF01DD2371F116
:1026B00061E070E08D2F90E00E9441167C019093C4
:1026C000AE018093AD0110E0C1E001E000939D04F4
:1026D000C093BF0410929E041092C0040E948B010C
:1026E000811105C0F701E10FF11DC0831F5FCF5FAE
:1026F000CF3761F7D23050F080918A00887F809385
:102700008A0080917D008B7F80937D0010928800ED
:102710001092890085B7806285BFFF91EF91DF91AC
:10272000CF91BF91AF919F918F917F916F915F9169
:102730004F913F912F911F910F91FF90EF900F902C
:102740000BBE0F900FBE0F901F9018951F920F9207
:102750000FB60F9211240BB60F922F933F934F9306
:102760005F936F937F938F939F93AF93BF93CF9319
:10277000DF93EF93FF937894C5E5D1E0E991F99168
:10278000808187FF08C08F772091AC0191819217DB
:1027900020F10E94220881E0C339D80779F786E941
:1027A00084BD8091AC018F5F8032D1F08093AC0109
:1027B000FF91EF91DF91CF91BF91AF919F918F9159
:1027C0007F916F915F914F913F912F910F900BBE31
:1027D0000F900FBE0F901F9018950E945107DBCFEE
:1027E0001092AC01E5CFE1ECF4E01382128288EEA6
:1027F00093E0A0E0B0E084839583A683B78387E964
:1028000091E0918380830895789483B78C6483BF2B
:1028100087B7816087BFC2E0CEBD8EB581608EBDB7
:102820008FB581608FBD85B5846085BD85B58064B9
:1028300085BD80918A00836080938A0080918B009F
:10284000816080938B0087E886B91AB80FB6F89438
:10285000A89581B5886181BD11BC0FBE1ABA17BA9F
:1028600014BA11BA12B8109261001092640061E0BB
:1028700081E00E94930281E00E94E30110925402E1
:102880001092530210929E041092C00410929C0465
:1028900081E080939B041092940483E10E94E30101
:1028A00082E10E94E301809171008C7F809371002E
:1028B00088E48093700085E4809374008DE592E055
:1028C000909352028093510289E692E090935002D5
:1028D00080934F02C09372008CE08093700089ED6A
:1028E0009AE0909356028093550289E296E0909385
:1028F000580280935702BD9ABC9ABB9ABA9AB89A6A
:10290000179A8F9A8E9A8D9A809164008061809335
:10291000640080916400886080936400BE9ABF9ACE
:102920008091610088608093610080916100846083
:10293000809361008091610082608093610080914A
:102940006100816080936100D69A8091640082600A
:102950008093640080916400816080936400A19AF8
:10296000A29AA39AA49A80916100806280936100E8
:1029700080916100806480936100D79AA79AA69A9B
:1029800080916100806180936100A59AA09AD0E057
:10299000C0E0FE01E457FF4F6491CE010E941A1679
:1029A0002196C03121E0D207A1F761E081E893E0F0
:1029B0000E941A16C0E0CF5F8C2F0E942208CF31F0
:1029C000D1F78DE190E00E94121680937A048CE199
:1029D00090E00E94121680937B048DE190E00E94AB
:1029E000121685FF03C181E190E00E9412168F73D9
:1029F000C82FD0E0DC2FCC2782E190E00E94121695
:102A0000C82BD0937E04C0937D0483E190E00E94A4
:102A1000121680937F0480E8809380048093810461
:102A20008CE9A82E81E0B82E95E5E92E91E0F92EEB
:102A3000670127E0922EF50105911491C8010E94CB
:102A40001216C82FC80101960E941216D82F0E5FC9
:102A50001F4FC8010E941216803228F06FE1C80192
:102A60000E942B168FE1D6010D911D916D01F80189
:102A70008183D03809F4C9C0D13809F4CEC0D1114E
:102A80000FC0C99DE0011124C956DD4F41E0B801D6
:102A9000CE010E94C80F40E0B801CE010E94C80FCD
:102AA000F2E0AF0EB11C23E9C21621E0D20609F014
:102AB000C2CF85E190E00E94121680FF05C0909180
:102AC0009E02946090939E0281FF05C09091A502A2
:102AD00094609093A50282FF05C09091AC0294602F
:102AE0009093AC0283FF05C09091B30294609093E1
:102AF000B30284FF05C09091BA0294609093BA0229
:102B000085FF05C09091C10294609093C10286FF39
:102B100005C09091C80294609093C80287FF05C0D9
:102B20008091CF0284608093CF0286E190E00E9482
:102B3000121680FF05C090919702946090939702BF
:102B400082FF05C09091D60294609093D60283FFD5
:102B500005C09091DD0294609093DD0284FF05C072
:102B60009091E40294609093E40285FF05C09091F7
:102B7000EB0294609093EB0286FF05C09091F20205
:102B800094609093F20287FF05C08091F9028460FF
:102B90008093F902D701ED91FD917D0180818F77BE
:102BA00080830E945107B3E9EB16B1E0FB0691F771
:102BB0000AE714E0C7E9D2E0CE010E946A09CE011B
:102BC0000E941709EFEFF9E628E1E150F0402040BC
:102BD000E1F700C00000CE010E941A08CE010E9459
:102BE000110827960C171D0739F7E4CF81E090E014
:102BF0000E941216181634F063E081E090E00E9403
:102C00001A1683E0C82FD0E0FCCEC99DC001112464
:102C100040E0B80189569D4F41CFC99DC0011124A4
:102C200041E0F7CFE199FECF9FBB8EBBE09A992799
:102C30008DB30895262FE199FECF9FBB8EBBE09AFE
:102C400001970DB2021631F02DBB0FB6F894E29A3F
:102C5000E19A0FBE0895262FE199FECF9FBB8EBB50
:102C60002DBB0FB6F894E29AE19A0FBE0196089533
:102C7000EE0FFF1F0024001C0BBE0790F691E02D05
:102C800009940F931F93CF93DF93869F8001879FB3
:102C9000100D969F100D1124C8010E945D16EC01C5
:102CA000009729F0A80170E060E00E948217CE0131
:102CB000DF91CF911F910F9108950F931F93CF93A1
:102CC000DF938230910510F482E090E0E091CF0430
:102CD000F091D00430E020E0B0E0A0E0309799F42B
:102CE0002115310509F44AC0281B390B2430310560
:102CF000D8F58A819B816115710589F1FB01938368
:102D00008283FE0111C040815181028113814817E5
:102D10005907E0F04817590799F4109761F0129697
:102D20000C93129713961C933296CF01DF91CF919B
:102D30001F910F9108950093CF041093D004F4CF06
:102D40002115310551F04217530738F0A901DB0175
:102D50009A01BD01DF01F801C1CFEF01F9CF9093D6
:102D6000D0048093CF04CDCFFE01E20FF31F8193F7
:102D700091932250310939832883D7CF2091CD04F4
:102D80003091CE04232B41F4209151013091520116
:102D90003093CE042093CD0420914F013091500107
:102DA0002115310541F42DB73EB7409153015091A3
:102DB0005401241B350BE091CD04F091CE04E217B1
:102DC000F307A0F42E1B3F0B2817390778F0AC014E
:102DD0004E5F5F4F2417350748F04E0F5F1F50932B
:102DE000CE044093CD04819391939FCFF0E0E0E037
:102DF0009CCFCF93DF930097E9F0FC0132971382C9
:102E00001282A091CF04B091D004ED0130E020E017
:102E10001097A1F420813181820F931F2091CD045E
:102E20003091CE042817390709F061C0F093CE0421
:102E3000E093CD04DF91CF910895EA01CE17DF072B
:102E4000E8F54A815B819E0141155105B1F7E90121
:102E5000FB83EA8349915991C40FD51FEC17FD07F5
:102E600061F4808191810296840F951FE901998315
:102E70008883828193819B838A83F0E0E0E01296CD
:102E80008D919C9113970097B9F52D913C911197D5
:102E9000CD010296820F931F2091CD043091CE0474
:102EA0002817390739F6309751F51092D00410924F
:102EB000CF04B093CE04A093CD04BCCFD383C28300
:102EC00040815181840F951FC817D90761F44E5F67
:102ED0005F4F88819981480F591F518340838A81B0
:102EE0009B81938382832115310509F0B0CFF09344
:102EF000D004E093CF049ECFFD01DC01C0CF13824C
:102F00001282D7CFDC0101C06D9341505040E0F7F1
:062F10000895F894FFCFC4
:102F16001FFF1EFF1DFF1CFF1BFF1AFF19FF18FFD7
:102F260017FF16FF15FF14FF13FF12FF11FF10FF07
:102F36000FFF0EFF0DFF0CFF0BFF0AFF09FF08FF37
:102F460007FF06FF05FF04FF03FF02FF01FF013431
:102F56000500000000000000000000000000000066
:102F660000D10480003C013A0138013601340132B7
:102F76000130012E012C012A0128012601240122FB
:102F86000120011E011C011A01180116011401126B
:102F96000110010E010C010A0108010601040102DB
:102FA60001000100000000FA05CD054106AA0572E0
:062FB60005BA05AB0500A1
:00000001FF
